:400000000010002011000000490200004902000008B501F067FC00F019F9C04610B50F4C12232360182001F0D9FBFE2212020C4B1A600C4B0C4A1A60802149010B4A11601E
:400040000B4A1A6000220B4B1A6040320A4B1A6001320A4B1A601123236010BD30001040000301400000014040FF00800403014041FF008028000340080101400401014031
:4000800008B572B699221204144B1A60EE221202134B1A606022134B1A606E23124A1360C4218902114A1160114A1360FD22114B1A60114A114B1A600122114B1A60D822D8
:4000C0001201104B1A6002230F4A13600F4A1360FFF7A4FF00F01EF908BDC04600000240000302400004024000000440080004401800044000020440806DDB0008020440DB
:400100001802044008030440000404401804044010B5064C2378002B07D1054B002B02D0044800E000BF0123237010BDA000002000000000A81F000008B5084B002B03D064
:400140000748084900E000BF07480368002B00D108BD064B002BFBD09847F9E700000000A81F0000A4000020880000200000000010B562B600F0F2F800F018FB01F0AEF93A
:4001800000F0B0FB002850D100F010F9002000F07FFA041E2B4B9C422DD00A2803D9002001F040F902E0012001F03CF91E2C03D9002001F043F902E0012001F03FF9322CE8
:4001C00003D9002001F046F902E0012001F042F9462C03D9002001F049F902E0012001F045F95A2C03D9002001F04CF912E0012001F048F90EE0012001F014F9012001F0B5
:400200001DF9012001F026F9012001F02FF9012001F038F900F058FB00F09EFB01F08AF9002802D1201C01F077F901F06DF90028A6D001F063F943425841C0B201F02EF938
:400240009EE7C046FFFF0000FEE7C04670B50F4E0F4D13E029686B68AC68002202E001C901C30432A242FAD1E868002202E0002102C304328242FAD11035013E002EE9D1DF
:4002800001F05AFEFFF774FFFEE7C04601000000BC20000008B500230AE0032B03D89A000949505800E009489900094A885001331F2BF2D9FFF7E4FE0022064B1A608022B8
:4002C0009205054B1A6008BD0000000049020000000000208000002008ED00E00B4B1B68002803D080221206134301E05B005B08064A1360064B1B68002802D0202213434C
:4003000001E020229343024A13607047002002402800034008B580225201044B1A600122034B1A600120FFF7D9FF08BD94020B40A8020B4008B5084B1B78002B06D100F0FC
:4003400075F900F0C1F90122034B1A7000F050F800F02AFB08BDC046BC00002038B5FFF7E9FF051E02D100F049FB051C002D02D100F0F2FA051C002D16D101F07EF9041CC7
:4003800007E001F097FA201C01F07BF901F075F9041C00F0A7FA0028F3D1201C01F071F900F09CF900F002FA281C38BD38B50E4D002414E0630902339B000C4AD3185A6857
:4003C0001F232340DA40131CDB0706D5281C00F06BF8201C291C00F0FDF828350134002CE8D0002038BDC046B41F00003001002030B500230BE01848191D890000220A5012
:400400009A1C920082180121494251600133002BF1D0124A01231BE05568137E0E48401800240475023B012B10D81369002B01D0E87918705468002306E0181C0830400025
:4004400001256D4205530133002BF6D028320B1C591E002BE0D130BD30010020B41F000010B582B0041C131C428868460280E289081C694601F05AFB6B461B8863806B4699
:400480009B7823716B46DB7863716B461B79A37102B010BD0B884A889B1A0022CA8002799A4200DACB807047F0B54F4680B482B0814684684668037E0193076A002515E08B
:4004C0002088F1893A1C01F067FB301C391C2A1CFFF7C6FF0C37301C211C019A00F07CF9301C211CFFF7D6FF0A3401354B46DB8AAB42E5D802B004BC9146F0BDF0B5474633
:4005000080B482B08446CB8A8A684E68086980466046002803D17488B079201802E07488B079201A0025012409E0D388984201D3002300E0231C1D430A3264003B1C5F1EC5
:40054000002BF2D1002D0BD043461B78002B02D0013B4246137043461B78002B04D104E0F3794246137000E06546002D22D00C1C7388B2799A1ACF8A8868391C00F0C4FEB2
:40058000002820D0237E022B1DD1A18B01A83A1C00F008FF00220AE0530002A98C466344043B1988131C08335B00995301329042F2D808E0002006E0031C08335B0001229C
:4005C00052429A5301300028F6D0281C02B004BC9046F0BD38B5041C0B7E134A1218157D023B012B04D8281CFFF788FF051C02E0002001F07BF80C4B1B191D7563091F221C
:4006000014401E3AA240141C002D06D1064904339B005A58A2435A5005E0034A04339B0099580C439C5038BD3001002038B5154D281C0021642201F0AEFC134B2B80B0236F
:400640005B006B80603BFF3B2B76104C281C1A30211C3031122201F095FC221C083401230CE0A168E38A04E013784B7101320A31031C581E002BF7D128342B1C5D1E002B16
:40068000EFD138BD30010020E2760000AC1F0000002810D183001B18DB000A4AD31820331B78023B012B09D883001818C0001018C368188A04E00120404201E00120404295
:4006C0007047C046AC1F00000023024A9380024A136070473001002004010020F8B501231EE0AB005B19DB000F4AD3185E68DB8A12E0AB005B19DB000B4AD3189F68A000F9
:40070000001940001A6A61000B199B00D218385AF18901F02DFA231C5C1E002BE9D12B1C5D1E002BDDD1F8BDB41F0000C9B2062902D08318002119715300195AC3185980B1
:40074000821800231372704770B50D4A85002B18DB00D3189C688B005918490064182818C0001018067E012305E0201C311C2A1CFFF7DCFF2B1C5D1E002BF6D170BDC04675
:40078000B41F000038B5051C83001B18DB00064AD318DB8A04E0281C211CFFF7D5FF231C5C1E002BF7D138BDB41F000010B5012303E0201CFFF7E6FF231C5C1E002BF8D1F4
:4007C00010BDC0469840031C534380204000801A41435818000A7047F0B583B0071C0E1C019201233BE06300985BF3185988884205D3431A321900251572012201E00B1A12
:400800000022002A11D17D799D420ED233191B7A3A7A934205D3301C0199221CFFF786FF1CE032190133137218E03D799D4204D27D799D4212D9002A10D16B461B79062B50
:400840000CD0090235192B79194301220823FFF7B9FF020A6300F3185A802871231C5C1E002BC0D1002003B0F0BDC04670B5031C084C85002A18D200A218506892688E0034
:40088000711849005118EB18DB00E3181A7EFFF7A3FF70BDB41F000070B5061C83001B18DB00084AD318DB8A002505E0301C211CFFF7DCFF0543231C5C1E002BF6D1281CDF
:4008C00070BDC046B41F000038B50024012304E0281CFFF7E1FF04432B1C5D1E002BF7D1201C38BD024B187A7F2398437047C0463001002010B5104B9B68DB0310D400281B
:4009000010D1C3041B0E02339B000B4AD3185A681F230340DA40131CDB0705D4012404E0112402E0012400E00024002C01D100F0A5FB201C10BDC0463001002008B5054B47
:400940009B68DB0303D400F06FFA002000E0112008BDC0463001002008B5114B9B681B061CD400220F4B1A700120404211E00D4B1878C0B2FFF7BEFF002805D10022094BD1
:400980005A70FFF7DBFF0AE0064A13780133DBB21370044B1B78002BE9D000E0112008BD300100200801002008B500F055FB002008BDC0467047C046074A084B1A60013882
:4009C0000002074B1860054B1B68002BFBDB054A024B1A607047C04640000040000001400003014040FF0080034A13681B0B1B03013818431060704700020B4070B586B051
:400A0000FA239B006A461380304B538096235B0193802F4B197E2F4801F00CF96B461881002500264DE0AB005B19DB002A4AD3185C682A4A11682A4B0B401360A3895B0041
:400A40006A46D380231C0E3305930C2323801089244901F0EFF8C0B2E072FFF7C5FF0022214B9A70281C552100F0C4FB231C0A33039301330493684601F00AF8442800D969
:400A800006266B461B89134A934205D8E37A012B0AD80223E37207E0144A934204D8E37A072B01D80823E37201220F4B9A70281C552100F09FFB0643684601F013F8208085
:400AC0000135002DAFD0301C06B070BD5508000030010020C05D0000B41F000000020B40FFFFF8FDDC0500000801002080BB00001E2801D9962909D80E2801D9462907D8A4
:400B0000062807D91E2907D8012006E0042004E0032002E0012000E0022000047047C046C27A13039A1A018801238B40013B9A4201D2024800E002487047C04600000602E7
:400B40000000050238B5C57A00880F2804D801228240101C013814E001238340681C40081C1A0F4B197E0F4801F064F80E4B984201D8E01E05E00B4B984201D8201F00E0D4
:400B8000601F291C01F056F8084B1B78012B05D1034B1B7E5D43A02D00D8800838BDC0463001002000366E01001BB7000A010020074B4343074A42430904994203D38A4270
:400BC00003D2062002E0062000E000207047C046D7E30000281C010038B5041C00F04DFD0A490B687F25AB43094A1278A418A47A23430B6007490B68AB43074C2468A218C5
:400C0000527913430B6000F03CFD38BDC0010B407C200000C4010B409401002010B50F4B1B789A00D318DB000D4AD31858680D4B1B78012B11D1C47A0B4B1B7E6343A02BF2
:400C400005D9FFF77FFF211CFFF752FF01E0FFF767FF013C0443054B1C6010BD08010020B41F00000A0100203001002000020B4010B50A2000F026FD444B1B687022934303
:400C80001C1C434A117E434800F0D4FF424A904204D8202323433D4A13600BE03D4B984204D830232343394A136003E040232343364A1360354B1B68384A1343384A13606E
:400CC0000124384B1C60482000F0CEFC0023364A1360364A13600622354B1A60FA32354B1A6080225204344B1A60344B1C6083225200334B1A60033AFF3A324B1A60013ADA
:400D0000314B1A60F0235B0000E0013B2C4A1268520701D4002BF8D1002B02D108222A4B1A600024204B1C60204B1C6083225200234B1A600A2000F0CFFC0A2000F0B8FC86
:400D40001B4B1C601B4B1C601B4B1C6050221B4B1A604F3A1D4B1A60124B1C601C4A1368802149040B4313600222164B1A60F0235B0000E0013B0A4A1268520701D0002BFB
:400D8000F8D1144A104B1A6010BDC0468C0000203001002000366E01001BB7000010008000000B4080010B40B0020B40B4020B4088020B4080020B4084020B40F0010B409C
:400DC000F0000B40F8000B4040030B408C010B4000020B400103000008B5044A044B91680B439360FFF744FF08BDC046300100208000010070B5041C857E067E00F03DFC5F
:400E000023681B680F22B24093431A1C0423B3401343666832680721A9408A4332602268136000F02EFC70BDF8B51C4D2B781C4C9A00D318DB00E3185F682B789A00D3187E
:400E4000DB00E3189B7D013BDBB2164E33702B789A00D318DB00E3189968327893009B185B00CB18104A1360FFF7D8FE381CFFF7B3FE2B789A00D318DB0018593178CA000C
:400E8000531A9B00C018094B1860FFF7B3FF084800F0DCFBFFF7A0FFF8BDC04608010020B41F00001001002094010020140100206519000038B5041C007EA57E21680B6838
:400EC0000F22824093430B6000F0D7FB61680B680722AA4093431A1C0623AB4013430B6000F0CFFBA1680B68607E0122824093430B6038BD38B500251AE0AB005B19DB0097
:400F00000D4A9A580D4B1A60002408E0E3001B1B9B000A4A1068C018FFF7CCFF0134AB005B19DB00044AD3189B7DA342EED80135002DE2D038BDC046B41F0000140100202E
:400F400010B5FFF7D7FF0024274B1C60274B1C60274B1C60274B1C60274B1C60274B1C60274B1C6027490C60274B1C6027480368F0229343903A13430360254A13688020A1
:400F800040010343136080225200224B1A60224A136822480343136080235B04204A13602048214A10600B60204A214B1A60214A214B1A60C1225204204B1A60204B187E05
:400FC000FFF7FAFC802252021E4B1A6001221E4B1A601E4B1C6003321D4B1A60C02212031C4B1A6010BDC046F4000B40B4020B40C0020B4020030B4084010B4088020B401F
:4010000080020B4084020B4080010B400004024094020B40A0020B40A8020B4001000010A4020B404111000088010B400000030190020B4000008301C0010B40C4010B4094
:401040003001002000020B4000030B40F0010B4010030B4004020B4008B5FFF771FF08BD10B5054B1B79012B05D1034C2068FFF721FF0023237110BD1401002070B5041C1B
:40108000124D83001B18DB00EB185E68FFF7E8FFE4B20F490C700B789A00D318DB005A590C4B1A600C4A7F2390689843031C906009780B4393603288084B1A60301CFFF764
:4010C00041FD0004000C064B186070BDB41F00000801002014010020300100200C01002014030B40F0B54F464646C0B483B0071C0E1C9046384D2B78384A91469A00D31805
:40110000DB004B445B6801932B789A00D318DB004B449968324C227893009B185B00CB18304A13602878C0B2FFF7A8FFFFF776FD002333702B789A00D318DB004A46985871
:401140002178CA00531A9B00C018274B1860FFF751FE402533782B4333700198FFF73CFDFFF73AFE214A00E0013A214B1B7A5BB2002B01DA002AF7D11A4B1B681C88BC42D0
:4011800002D23378AB4333706D08E3D1124B1B789A00D318DB00114A9858114B1978CA00531A9B00C018104B1860FFF783FE381C211CFFF7FDFC43461A7833789A4201D285
:4011C00042461370074B1B6832785A7103B00CBC90469946F0BDC04608010020B41F00001001002094010020140100203333000030010020F0B585B0041C83001B18DB005E
:40120000374AD3185F68002503AB1D70388801238340181C4843642100F00CFD0190E2B2304B1A70304A314B1A6080221204304B1A60304800F00AFA3E1C0A362E4B1D70E4
:401240000AE00198311C03AAFFF74CFF05432A4A13780133DBB21370A3001B19DB00204AD318597E244B1B78DBB29942E9D803AB1B7801335B08BB7200221F4B1A701BE006
:40128000A3001B19DB00164AD31898681A4B1A7893009B185B00C318184A13605A79B87A824202D3121A5A7101E000225A71124A13780133DBB213700F4B1B78DBB2994206
:4012C000DED80F4A13680F490B431360064A074B1A60C1225204064B1A60281C05B0F0BDB41F00000801002000008301C0010B40C4010B40391900001001002094010020B1
:40130000A8020B4001000010F0B50024244B1C70041C002600230BE0E588954206D9AE4204D21F4E3371012737702E1C0A3401338B42F1D31A4B1C78002C2FD01D1C1B7988
:401340009A00D21852008618F6886E81002B0ED18A00511849000A394118C988298101339900CB185B00C318DB88AB8116E001398B4207D10A3A8218D288094B1A81C288F4
:401380009A810BE00A3A8218D188054A118101339900CB185B00C318DB889381201CF0BD1C010020F0B5474680B482B080460F1C019200262CE01A4B9B191C79002C07D18C
:4013C00073009B195B00164AD31800221A810AE0019B013B9C4206D173009B195B00104AD31800229A817500AB195B000C4AD3189A891989501A5B89C9185118784300F00B
:40140000A9FC7C4300197F30000A434658530136034B1878B042CED802B004BC9046F0BD1C01002004490A68EF231A400001DF3B18401043086070470002044004490A684E
:40144000FB231A408000F73B184010430860704700020440044A11687F230B40C001C0B2184310607047C0460002044004490A68F7231A40C000EF3B184010430860704796
:401480000002044004490A68BF231A4080017F3B18401043086070470002044004490A68DF231A404001BF3B18401043086070470002044008B500F093F808BD08B500F090
:4014C00041F808BD08B5044A1368802109060B431360FFF7EFFF08BD0000094008B5064B1B78002B04D1FFF7E9FF0122024B1A70FFF7E8FF08BDC0462C010020014B1868CB
:401500007047C04640030940024B1B681F2018407047C04608030940044B1B681F221340082BF9D0024B18607047C0460802094040020940024B1B681F2018407047C04604
:4015400008020940134A144B1A600023134A13601349144A1160144A14490A6007201449086014490B6006381349086013490A60134A13600421134A1160134A1360134A33
:401580001360134A1360134A1360134A1360134A136070470B00000200000940400009400102000048000940070000800003094004030940100309404400094000020940F7
:4015C0000402094050000940880E0940C80E0940480F0940080F0940C80F0940880F0940044A1168044B0B40902109040B4313607047C04600000240FFFF0FFF014B9866D0
:401600007047C0460000002010B5041C00F035F8044A1168044B0B40A4051C43146000F030F810BD08E400E0FFFF3FFF8022D200014B1A607047C04600E100E08022D200D5
:40164000014B1A607047C04680E100E010B5041CFFF7F4FF201CFFF7D1FF0320FFF7D4FFFFF7E4FF10BDC0460230800803D001300238FCD1C046C0467047EFF3108072B61C
:40168000704780F310887047024A1168024B0B401360704700000740FFFFFFBF034B18688023DB05184000D001207047000007401F2318401E3B8340181C014B186070472A
:4016C00000E100E01F2318401E3B8340181C014B1860704780E100E01F2318401E3B8340181C014B1860704780E200E001BE704710B5041C06E0084B1868FFF7B5FF074BCC
:401700009C46644480231B029C42F4D8024B58686043FFF7A9FF10BD900000200080FFFF30B583B000F0D4F8002843D0FFF7A5FF041C214B1B6807221A409200101C18302B
:401740001E4B19681E4B19401E4B43438025ED01AC466344DB0B013B5B055B0D0B43A02149031943192802D8174A13430CE0174B9C4660440078023A154B9B5CC318FF2B4B
:4017800000D9FF239B050B430C4A1360114D2B680193302000F052F90F4A13688021C9050B4313601420FFF7A3FF019B2B60201CFFF767FF03B030BD080F0340080007408F
:4017C00000F800C040420F000000D43FCDF1FF0F802000003000104000000740F0B583B0041E182C0BD01C2809D0202807D0242805D0282803D02C2801D0302849D1FFF734
:401800003CFF0190FFF74AFF002803D0FFF73CFF012600E00026214A136807218B4313601F4BE3181B78DBB21E4A13601E4A13688B4313601D4803687F229343191C1C4B8E
:40184000E3181B7813400B4303603220FFF70CFF182C16D9114F3B680725AB431A1C231C1C3B9B082B4013433B603220FFF7FCFE3A68AA43231C183B9B082C1C1C40144367
:401880003C60012E01D1FFF74BFF0198FFF7F9FE02E00020FFF72AFF03B0F0BD080F0340CDF1FF0F0C0F0340100F0340180F0340B4F1FF0F08B5FFF7E0FE044A13680421C2
:4018C0008B43136030BFFFF7DCFE08BD10ED00E0034B1B68002B01DA012000E00020704700000740014A024B1A6070476588EDAC380003400C4B1A6801239340013B0B4A25
:4019000012681204120C9A4206D2094B1968094B1B785B00CA5205E0054A1168054A127852008B527047C0460C010020D0000B40940100207C20000008B583225200064B02
:401940001A60FFF7D7FF054BDA880132DA80044A99680A409A6008BDF0000B40300100207FFFFEFFF8B52D4E33782D4F9A00D318DB00DC592B4D2978CA00531A9B00E418B8
:4019800083225200284B1A60FFF7B4FF201CFFF791FA327893009B18DB00FB18586833782B782B78002B25D01E490B78013BDBB20B701A4D2B781A4C9A00D318DB00E31835
:4019C0009E680A7893009B185B00F318174A13602B789A00D318DB001C590978CA00531A9B00E418FFF7F8F8201CFFF703FAFFF73FF912E00E4A0F4B91680B4093600E4AA2
:401A00001278012A02D1FEF7D5FF06E0084A80218B439360D3880133D380F8BD08010020B41F000010010020F0000B409401002030010020FFFFFEFF0901002038B5041C84
:401A4000FFF71BFE051C102C05D8104A136803218B43136016E0202C07D80C490B6803229343023A13430B600CE0302C07D807490B6803229343013A13430B6002E000201F
:401A8000FFF734FE281CFFF7FCFD38BD3000104038B5041CC36861881878A3885843800000F0C8F8072100F0C5F8051C238820890B495843684300F0BDF801302369102237
:401AC000082809D80822042806D80422022803D801D1187001E001221A70281C38BDC04600E1F50538B5041C428813049003181AE368801A1978A388594300F09BF8236975
:401B0000051C1978208900F095F8E188684300F091F8021C1020E1239B009A4203D9431ED8B25208F7E763691A8038BD70B5061C0C1C101C0A211D1C00F07CF80B4A80B233
:401B4000002D01D1158001E02388138033889B00984200DC98B21388834200D220804308DBB2C008A370E370207170BD2E01002038B5051C081C0A21141C00F05BF880B275
:401B8000830823800F23A3720023C008A580E58025816080E37238BD38B5031C141C90889380927A181A5200D2B2002801DBA27202E00132A27240420F22A57A154062889E
:401BC000A572904203D2012A03D9013A00E0013262800F2D05D0002D03D06588AA00904203D9E380238100230CE0E2889A4201D9E38003E022899A4200D22381E37A092B90
:401C000002D80133E37213E02389E2889B1A9BB29D4209D9081C0A2100F00CF880B28008854203D9013D00E0013565806388238038BD0000002243088B4274D303098B42BF
:401C40005FD3030A8B4244D3030B8B4228D3030C8B420DD3FF22090212BA030C8B4202D31212090265D0030B8B4219D300E0090AC30B8B4201D3CB03C01A5241830B8B42E3
:401C800001D38B03C01A5241430B8B4201D34B03C01A5241030B8B4201D30B03C01A5241C30A8B4201D3CB02C01A5241830A8B4201D38B02C01A5241430A8B4201D34B0276
:401CC000C01A5241030A8B4201D30B02C01A5241CDD2C3098B4201D3CB01C01A524183098B4201D38B01C01A524143098B4201D34B01C01A524103098B4201D30B01C01AAB
:401D00005241C3088B4201D3CB00C01A524183088B4201D38B00C01A524143088B4201D34B00C01A5241411A00D20146524110467047FFE701B5002000F0FCF802BDC0462B
:401D40000029F7D003B5FFF775FF0EBC4243891A1847C04603460B437FD4002243088B4274D303098B425FD3030A8B4244D3030B8B4228D3030C8B420DD3FF22090212BA09
:401D8000030C8B4202D31212090265D0030B8B4219D300E0090AC30B8B4201D3CB03C01A5241830B8B4201D38B03C01A5241430B8B4201D34B03C01A5241030B8B4201D327
:401DC0000B03C01A5241C30A8B4201D3CB02C01A5241830A8B4201D38B02C01A5241430A8B4201D34B02C01A5241030A8B4201D30B02C01A5241CDD2C3098B4201D3CB01F0
:401E0000C01A524183098B4201D38B01C01A524143098B4201D34B01C01A524103098B4201D30B01C01A5241C3088B4201D3CB00C01A524183088B4201D38B00C01A52417B
:401E400043088B4201D34B00C01A5241411A00D201465241104670475DE0CA0F00D04942031000D34042534000229C4603098B422DD3030A8B4212D3FC22890112BA030A21
:401E80008B420CD3890192118B4208D3890192118B4204D389013AD0921100E08909C3098B4201D3CB01C01A524183098B4201D38B01C01A524143098B4201D34B01C01A48
:401EC000524103098B4201D30B01C01A5241C3088B4201D3CB00C01A524183088B4201D38B00C01A5241D9D243088B4201D34B00C01A5241411A00D20146634652415B10F7
:401F0000104601D34042002B00D54942704763465B1000D3404201B5002000F00BF802BD0029F8D003B5FFF715FF0EBC4243891A1847C0467047C0460E4B70B500251E1C1E
:401F40000D4CE41AA410A54204D0AB00F35898470135F8E700F0A0F8084B00251E1C084CE41AA410A54204D0AB00F35898470135F8E770BDA4200000A4200000A420000053
:401F8000AC200000002310B5934203D0CC5CC4540133F9E710BD031C8218934202D019700133FAE770470000000000002020202020000000F01F00004A0100205C01002058
:401FC0000000000000010020010005000205640000190000C4000020C00000200C000100010101031E642008F4010000FFFF000000020240080204400002044004020440A0
:402000000F0000000100000000000000000002400800044000000440040004400000000F40000000180612000000024008000440000004400400044000F0000008000000E5
:402040000C03090000000240080004400000044004000440000F0000040000000802060000000240080004400000044004000440F0000000020000000401030000000000F7
:40208000EEDBC9B9AA9B8E82766B60564D443B332C241D17100A0400F8B5C046F8BC08BC9E4670473901000095020000F8B5C046F8BC08BC9E46704711010000D0200000E9
:4020C0008800002018000000F80000000000000000000000020000040000E02EC05D00001800000000366E010000000000000000000000000000000000000000000000003A
:40210000000000000000000000000000000000000000000000000000000000000000000000000000000000000000000000000000000000000000000000000000000000009F
:40214000000000000000000000000000000000000000000000000000000000000000000000000000000000000000000000000000000000000000000000000000000000005F
:40218000000000000000000000000000000000000000000000000000000000000000000000000000000000000000000000000000000000000000000000000000000000001F
:4021C00000000000000000000000000000000000000000000000000000000000000000000000000000000000000000000000000000000000000000000000000000000000DF
:0200000490303A
:0200000062712B
:0200000490402A
:200000000000000000000000000000000000000000000000000000000000000000000000E0
:0200000490501A
:0C0000000002190111A90001190B741A6B
:0200000490600A
:0100000001FE
:00000001FF