:400000000010002011000000DD010000DD01000008B501F039FA00F0E3F8C04610B50F4C12232360182001F0ABF90D4A0D4B1A600D4B0E4A1A60FE2109020D4A11600D4AD0
:400040001A6000220C4B1A6041320C4B1A60013A0B4B1A601123236010BDC0463000104000BF1200040301400000014041FF00800003014040FF0080280003400C010140E4
:400080000801014008B572B6124A134B1A60134A134B1A60EE221202124B1A607823124A1360124A1360F822114B1A60114A124B1A607022114B1A60114A124B1A600C2389
:4000C000114A1360114A1360FFF7A8FF00F0ECF808BDC04600006606000102400030883300020240000302400001044018010440000204400E0CDB00080204400003044093
:40010000806D1B0008030440000404401804044010B5064C2378002B07D1054B002B02D0044800E000BF0123237010BDA8000020000000008416000008B5084B002B03D0DF
:400140000748084900E000BF07480368002B00D108BD064B002BFBD09847F9E70000000084160000AC000020880000200000000008B562B600F07EFF01F004F800F0B8F8E2
:4001800000F052FA00F026FB00F0EAFA00281DD100F0D6F8002000F0D7F943425841C0B200F0F4FE012000F0CFF943425841C0B200F0F8FE022000F0C7F943425841C0B247
:4001C00000F0FCFE00F0BEFA00F004FB00F002FF43425841C0B201F05FF9D5E7FEE7C04670B50F4E0F4D13E029686B68AC68002202E001C901C30432A242FAD1E8680022DB
:4002000002E0002102C304328242FAD11035013E002EE9D101F008FAFFF7AAFFFEE7C04601000000EC17000008B500230AE0032B03D89A000949505800E009489900094AC0
:40024000885001331F2BF2D9FFF71CFF0022064B1A6080229205054B1A6008BD00000000DD010000000000208000002008ED00E00B4B1B68002803D080221206134301E05F
:400280005B005B08064A1360064B1B68002802D02022134301E020229343024A13607047002002402800034008B580225201044B1A601122034B1A600120FFF7D9FF08BDF1
:4002C00094020B40C0020B4008B5084B1B78002B06D100F003F900F049F90122034B1A7000F050F800F0A8FA08BDC046C400002038B5FFF7E9FF051E02D100F0FDFA051C10
:40030000002D02D100F066FA051C002D16D100F088FF041C07E001F09FF8201C00F085FF00F07FFF041C00F01BFA0028F3D1201C00F07BFF00F024F900F076F9281C38BDB8
:4003400038B50E4D002414E0630902339B000C4AD3185A681F232340DA40131CDB0706D5281C00F047F8201C291C00F08BF81C350134022CE8D9002038BDC0468C1600009A
:400380000801002070B500230BE01348191D890000220A509A1C920082180121494251600133002BF1D00D4C032310E06668227E094B5B1900211975012A06D120690028E4
:4003C00003D0F179E28A01F055F91C342B1C5D1E002BEBD170BDC046080100208C1600000B884A889B1A0022CA8002799A4200DACB807047F8B58468C38A4568067E0AE064
:40040000281C211C321C00F025F9281C211CFFF7E7FF0A343B1C5F1E002BF1D1F8BDC046F0B5CA8A8D684F680B69012125E00C1C044003D17E88BA79B21802E07A88BE792A
:40044000921BEE88B24201D3002200E00A1CA24202D01E78013E1E70A24202D01C78002C07D188431043002A01D1FA7900E001221A7049000A3501336246541EA446002AFE
:40048000D5D1F0BD38B5041C0A7E134B1B181D7D012A04D1281CFFF7C3FF051C02E0002000F0EEFE0C4B1B191D7563091F2214401E3AA240141C002D06D1074904339B0080
:4004C0005A58A2435A5005E0034A04339B0099580C439C5038BDC0460801002038B5174C201C0021642201F0C5F8154B2380B0235B006380603BFF3BA376124B201C1C309F
:400500001A1C583232CA32C032CA32C032CA32C0191C1C1D03230CE0A268E38A04E00B78537101310A32031C581E002BF7D11C342B1C5D1E002BEFD138BDC04608010020F8
:400540008A93FFFF8816000002280BD81F220240012393401A1C430904339B0002495858104000E000207047080100200023024A9380024A1360704708010020D4000020A7
:4005800003230BE0CB005B1A9B00064AD318DB8A00E0131C5A1E002BFBD10B1C591E002BF0D170478C160000C9B2062902D08318002119715300195AC31859808218002355
:4005C0001372704770B50D4DC3001A1A9200AA1894688A00511849006418181A80002818067E012305E0201C311C2A1CFFF7DCFF2B1C5D1E002BF6D170BDC0468C16000099
:4006000038B5051CC3001B1A9B00064AD318DB8A04E0281C211CFFF7D5FF231C5C1E002BF7D138BD8C16000010B5032303E0201CFFF7E6FF231C5C1E002BF8D110BDC046A2
:400640009840031C534380204000801A41435818000A7047F0B583B0071C0E1C019201233BE06300985BF3185988884205D3431A321900251572012201E00B1A0022002A1A
:4006800011D17D799D420ED233191B7A3A7A934205D3301C0199221CFFF786FF1CE032190133137218E03D799D4204D27D799D4212D9002A10D16B461B79062B0CD0090237
:4006C00035192B79194301220823FFF7B9FF020A6300F3185A802871231C5C1E002BC0D1002003B0F0BDC04670B5094DC200141AA4002C196668A3688C00611849005918DC
:40070000131A9B00EB181A7E301CFFF7A3FF70BD8C16000070B5061CC3001B1A9B00084AD318DB8A002505E0301C211CFFF7DCFF0543231C5C1E002BF6D1281C70BDC04659
:400740008C16000038B50025032304E0201CFFF7E1FF0543231C5C1E002BF7D1281C38BD024B187A7F2398437047C0460801002010B5104B9B68DB0310D4022810D8C3047C
:400780001B0E02339B000B4AD3185A681F230340DA40131CDB0705D4012404E0112402E0012400E00024002C01D100F0AFFB201C10BDC0460801002008B5054B9B68DB03AE
:4007C00003D400F0DFFA002000E0112008BDC0460801002008B5164B9B681B0626D40022144B1A70012040421AE0124B1878C0B2FFF7BEFF00280ED10E4B1B78DBB2012B92
:4008000003D801220B4B5A7002E00022094B5A70FFF7D2FF0BE0074A13780133DBB21370044B1B78DBB2022BDFD900E0112008BD08010020D800002008B500F065F9002030
:4008400008BDC04610B5174A13780133DBB213701078C0B2FFF78CFF041E09D1114B1B78022B02D100220F4B5A70FFF7A5FF15E00C4B1B78022B0AD10B4A7E3391689943B0
:400880000B021B0A040623439360002406E006498B681B021B0A020613438B60002CD2D110BDC046D80000200801002008B500F0A1FC08BD074A084B1A6001380002074B4F
:4008C0001860054B1B68002BFBDB054A024B1A607047C04640000040000001400003014040FF008008B5022804D8282100F0D4F9002000E0012008BD38B50024002504E04C
:40090000201CFFF7EFFF05430134022CF8D9281C38BDC04630B500200D4B16E019680A681C69A2430A605C6822689D7E0721A9408A43111C0622AA400A43226099680A68FA
:400940005C69A2430A601C3301300528E6D930BD0417000008B5344B1A68344B1B78D3185B79334A1343334A13600022324B5A80324A334B1A600122324B1A601123324AE6
:40098000136080214904314A1160314A13600622304B1A60304A314B1A60314A314B1A60314A324B1A60F0235B0000E0013B2F4A1268D20701D5002BF8D12C4B1B68DB0790
:4009C00003D5C2229200294B1A60294B997E294800F098FD284B984204D9264B984203D8302302E0202300E04023244A1343144A1360234A234B1A60002312490B60124901
:400A00000B6012490B6023201149086011490B6012490B6013490B60832149001A4B1960124B1A6008BDC0466C010020AC170000800E4301C0010B40E800002020100480D7
:400A400000000B4080010B4080020B4084020B40C0020B4088020B4001010100B0020B4010100000B4020B400303000040030B400801002000366E01001BB70000100C80EE
:400A8000010300008C010B40F0000B4008B50A2000F0ECFB83225200104B1A60104B1B689BB2104A5380104B19685388CB189BB253800E4B1B6898470D4B9B681B0609D46F
:400AC0000C4A0D4B1A60C02292000C4B1A600C4A0C4B1A600A2000F0BFFB08BDF0000B40D0000B40E8000020D4000B408C000020080100202010048000000B408C010B40A0
:400B0000800E4301C0010B4010B5832252003F4B1A6000233E4A136002213E4A11603E4A13603E4A13603E493E4A1160C02189003D4A11603D493E4A11603E4A136050211A
:400B40003D4A11603D4A13603D4A13603D4A13603D4A13603D4A13603D490A688020400102430A6032213B4A1160802149043A4A11603A490A688020400502430A60384ADC
:400B80001360384A13602321374A11602239374A11601331364A1160364A1360364A1360C2229200354B1A6000F03BFB344C23685B0A5B02236000F038FB00F032FB23687E
:400BC0001B0B1B03236000F030FB00F02AFB2D4C22682D4B1340C022D2001343236000F024FB00F01EFB2268284B1340C022D2011343236000F019FB254B987EFFF75AFED5
:400C0000FFF788FE2348FFF751FE10BDF0000B40F4000B40F8000B4080010B4084010B40411F1E0088010B408C010B40800E4301C0010B40F0010B4000020B4004020B4080
:400C400080020B4084020B4088020B4090020B4094020B40A0020B40A4020B40A8020B40B0020B40B4020B40C0020B4000030B4010030B4014030B4020030B4040030B405B
:400C80000804044000040240FFF0FFFFFF0FFFFF080100208D0A0000F0B583B00190C600331A9B00244EF618B3681D1C00937768BB7A3A8853439BB22048038002883B8876
:400CC0005B00D31A9BB2038000884843642100F019FC041C737EB77E5F432B1C002205E000211980403159710A330132BA42F7D32026402500E01E1C0198FFF739FDFFF75E
:400D00005BFD0F4B1B7A5BB2002BFADB009B00210AE01A88A24202D95A79AA435A715A7932435A710A330131B942F2D37308DBB2351EE0D103B0F0BD8C160000E800002075
:400D40000801002010B541680A68847E0623A34013430B6001680A68007E0423834013430B6010BD10B541680B68847E0722A24093430B6001680A68007E06238340134300
:400D80000B6010BD10B5104B1B68104A996811609A7E0F4CA280587EE0801A68A260C300181A80001018E060FFF7CCFFA068FFF7D9FF084A084B1A60084A802391680B436E
:400DC0009360FFF7C7FD10BDDC0000206C010020E80000201D0E00008C000020080100200268136801698B431360704710B50268136801698B43136041680B68847E072205
:400E0000A24093431A1C0623A34013430B608268136841698B43136010BDC04610B52C4B19682C4B1B782C4C228860885B00121A5A52E068FFF7D4FFA388013B9BB2A380E8
:400E4000002B0CD0244BD8681C30D860FFF77AFF1F4A13680A331360FFF77CFD37E01E4AD388013B9BB2D380002B1DD0141C9068FFF7BCFFA0681C30A060FFF773FF174B01
:400E80001A68937EA3801068E060537EDA00D31A9B00C018E060FFF755FF0D4A13680A331360FFF757FD12E00B4B9868FFF79EFF0B4B1B78002B02D0FFF7C4FC07E0094BB1
:400EC000DA880132DA80802299689143996010BD6C010020AC170000E8000020DC000020D90000200801002010B5074B1B8A002B08D0054CE068FFF773FFA068FFF776FF1D
:400F00000023238210BDC046E800002010B5041CFFF7EAFFE000001B8000164BC018164B18604068837A0188144A116002885A4392B2134C22802188028852008A1A92B2E7
:400F400022801E2B05D8462B05D8962B05D9042204E0022202E0032200E00122013B1B051B0D12041343074A1360074B987EFFF7A1FC10BD8C160000DC00002014030B4008
:400F8000E800002000020B400801002004490A68DF231A404001BF3B18401043086070470003044004490A68BF231A4080017F3B18401043086070470003044004490A6846
:400FC000EF231A400001DF3B184010430860704700030440024B1868C006C00F7047C04604030440174A13685B005B08136080214900154B19600623FF3313600022134BD1
:401000001A60134B13491960596099601248D8601961124959619861D8611A625A629E21890099620E48D8621863E738FF38586399630C49D9630C4B1A600C4B1A600C4BE1
:401040001A60704700000540FC00002010000540200005401111110007030600080808006602000055020000C0000540C4000540F000054008B50E4B1B79002B05D1FFF726
:40108000B1FF01220A4B1A710BE00A4B1B68002B07DB08490A68084B1340054A126813430B60044A1368802109060B43136008BDFC00002000000540FFE0FFFD0004000C6F
:4010C000014B18607047C046080106400004000C014B18607047C046140106400004000C014B18607047C0460C01064038B5041C0D1C00F096F8AC40024B1C6000F095F86A
:4011000038BDC0460800064008B500F08AF8064A116801230B43136000F087F801201821FFF7E4FF08BDC04600000640014B18607047C0463801064010B50D4C8023DB0436
:401140002360236823600020FFF7B8FF236823600C22084B1A600120FFF7E8FF3122064B1A600648FFF7B2FF0548FFF7B7FF10BD00010640240106402801064010270000D9
:401180008813000008B5064B1B78002B04D1FFF7D3FF0122024B1A70FFF7B6FF08BDC04604010020014B98667047C0460000002010B5041C00F035F8044A1168044B0B400C
:4011C000A4051C43146000F030F810BD08E400E0FFFF3FFF8022D200014B1A607047C04600E100E08022D200014B1A607047C04680E100E010B5041CFFF7F4FF201CFFF796
:40120000D1FF0320FFF7D4FFFFF7E4FF10BDC0460230800803D001300238FCD1C046C0467047EFF3108072B6704780F310887047024A1168024B0B401360704700000740DD
:40124000FFFFFFBF034B18688023DB05184000D001207047000007401F2318401E3B8340181C014B1860704700E100E01F2318401E3B8340181C014B1860704780E100E04E
:4012800001BE704710B5041C06E0084B1868FFF7BFFF074B9C46644480231B029C42F4D8024B58686043FFF7B3FF10BD940000200080FFFF30B583B000F0DCF8002848D0AD
:4012C000FFF7AFFF041C244B1B6807221A409200131C1833214A12681207920FD3401A1C1F4B19681F4B19401F4B53438020C00184466344DB0B013B5B055B0D0B43A02148
:4013000049031943192A02D8184A13430BE0184BD31818781A3A174B9B5CC318FF2B00D9FF239B050B430E4A1360134D2B680193302000F0BDF8114A13688021C9050B43F2
:4013400013601420FFF79EFF019B2B60201CFFF76CFF03B030BDC046080F0340280003400800074000F800C040420F000000D43FCDF1FF0FB01700003000104000000740FF
:40138000F0B583B0041E182C0BD01C2809D0202807D0242805D0282803D02C2801D0302849D1FFF73EFF0190FFF74CFF002803D0FFF73EFF012600E00026214A136807218F
:4013C0008B4313601F4BE3181B78DBB21E4A13601E4A13688B4313601D4803687F229343191C1C4BE3181B7813400B4303603220FFF70EFF182C16D9114F3B680725AB430E
:401400001A1C231C1C3B9B082B4013433B603220FFF7FEFE3A68AA43231C183B9B082C1C1C4014433C60012E01D1FFF743FF0198FFF7FBFE02E00020FFF722FF03B0F0BD08
:40144000080F0340CDF1FF0F0C0F0340100F0340180F0340B4F1FF0F08B5FFF7E2FE044A136804218B43136030BFFFF7DEFE08BD10ED00E0034B1B68002B01DA012000E06C
:401480000020704700000740014A024B1A6070476588EDAC38000340031C04490868FE220240012018401043086070470002044038B5041CFFF7B5FE051C102C05D8104A8B
:4014C000136803218B43136016E0202C07D80C490B6803229343023A13430B600CE0302C07D807490B6803229343013A13430B6002E00020FFF7C4FE281CFFF796FE38BDCD
:4015000030001040002243088B4274D303098B425FD3030A8B4244D3030B8B4228D3030C8B420DD3FF22090212BA030C8B4202D31212090265D0030B8B4219D300E0090A55
:40154000C30B8B4201D3CB03C01A5241830B8B4201D38B03C01A5241430B8B4201D34B03C01A5241030B8B4201D30B03C01A5241C30A8B4201D3CB02C01A5241830A8B42C1
:4015800001D38B02C01A5241430A8B4201D34B02C01A5241030A8B4201D30B02C01A5241CDD2C3098B4201D3CB01C01A524183098B4201D38B01C01A524143098B4201D335
:4015C0004B01C01A524103098B4201D30B01C01A5241C3088B4201D3CB00C01A524183088B4201D38B00C01A524143088B4201D34B00C01A5241411A00D201465241104643
:401600007047FFE701B5002000F00CF802BDC0460029F7D003B5FFF775FF0EBC4243891A1847C0467047C0460E4B70B500251E1C0D4CE41AA410A54204D0AB00F3589847E0
:401640000135F8E700F0C0F8084B00251E1C084CE41AA410A54204D0AB00F35898470135F8E770BDD4170000D4170000D4170000DC170000031C8218934202D01970013352
:40168000FAE77047000000002020200004170000240100204801002000000000D000002009000100010101003C170000300100205201002000000000CC0000200100010067
:4016C00001010100741700003C0100205C01002000000000C800002001000100010101006400640028280A031E6450006400640028280A031E6450006400640028280A0382
:401700001E645000000102400801044000010440040104400000000F40000000180612000001024008010440000104400401044000F00000080000000C03090000010240C9
:401740000801044000010440040104400000F0002000000014050F000001024008010440000104400401044000F00000080000000C03090000010240080104400001044053
:401780000401044000000F001000000010040C000001024008010440000104400401044000F00000080000000C03090000000000EEDBC9B9AA9B8E82766B60564D443B333D
:4017C0002C241D17100A0400F8B5C046F8BC08BC9E4670473901000029020000F8B5C046F8BC08BC9E46704711010000001800008800002020000000C8000000000000009C
:40180000000000001D0E0000010000000000E02EC05D00001800000000366E0100000000000000000000000000000000000000000000000000000000000000000000000094
:401840000000000000000000000000000000000000000000000000000000000000000000000000000000000000000000000000000000000000000000000000000000000068
:401880000000000000000000000000000000000000000000000000000000000000000000000000000000000000000000000000000000000000000000000000000000000028
:4018C00000000000000000000000000000000000000000000000000000000000000000000000000000000000000000000000000000000000000000000000000000000000E8
:4019000000000000000000000000000000000000000000000000000000000000000000000000000000000000000000000000000000000000000000000000000000000000A7
:0200000490303A
:020000006F99F6
:0200000490402A
:200000000000000000000000000000000000000000000000000000000000000000000000E0
:0200000490501A
:0C0000000002190111A900011908814239
:0200000490600A
:0100000001FE
:00000001FF