:400000000010002011000000710100007101000008B500F087FA00F0ADF8C04610B50A4C12232360182000F007FA084A084B1A60084A094B1A600022084B1A604032084BE3
:400040001A601123236010BD30001040005F09000003014040FF008000000140280003400C01014008B572B6E0229203094B1A60EE221202084B1A603022084B1A60C02261
:400080009202074B1A60D8221201064B1A60FFF7C5FF08BD00020240000302400002044008020440080304400000000000000000000000000000000000000000000000001D
:4000C0000000000000000000000000000000000000000000000000000000000000000000000000000000000000000000000000000000000000000000000000000000000000
:4001000010B5064C2378002B07D1054B002B02D0044800E000BF0123237010BDA0000020000000009806000008B5084B002B03D00748084900E000BF07480368002B00D1ED
:4001400008BD064B002BFBD09847F9E70000000098060000A4000020880000200000000008B562B600F0B2F800F022FAFEE7C046FEE7C04670B50F4E0F4D13E029686B6824
:40018000AC68002202E001C901C30432A242FAD1E868002202E0002102C304328242FAD11035013E002EE9D100F050FAFFF7D8FFFEE7C04601000000D806000008B5002398
:4001C0000AE0032B03D89A000949505800E009489900094A885001331F2BF2D9FFF742FF0022064B1A6080229205054B1A6008BD000000007101000000000020800000201C
:4002000008ED00E00004000C014B18607047C046080106400004000C014B18607047C046140106400004000C014B18607047C0460C01064038B5041C0D1C00F062F8AC40CD
:40024000024B1C6000F061F838BDC0460800064008B500F056F8064A116801230B43136000F053F801201821FFF7E4FF08BDC04600000640014B18607047C04638010640FB
:4002800010B50D4C8023DB042360236823600020FFF7B8FF236823600C22084B1A600120FFF7E8FF3122064B1A600648FFF7B2FF0548FFF7B7FF10BD0001064024010640AE
:4002C00028010640102700008813000008B5064B1B78002B04D1FFF7D3FF0122024B1A70FFF7B6FF08BDC046BC000020000000000230800803D001300238FCD1C046C04637
:400300007047EFF3108072B6704780F310887047024A1168024B0B401360704700000740FFFFFFBF034B18688023DB05184000D0012070470000074001BE704710B5041C76
:4003400006E0084B1868FFF7D3FF074B9C46644480231B029C42F4D8024B58686043FFF7C7FF10BD8C0000200080FFFF30B583B000F0CEF8002848D0FFF7C3FF041C244BFE
:400380001B6807221A409200131C1833214A12681207920FD3401A1C1F4B19681F4B19401F4B53438020C00184466344DB0B013B5B055B0D0B43A02149031943192A02D805
:4003C000184A13430BE0184BD31818781A3A174B9B5CC318FF2B00D9FF239B050B430E4A1360134D2B680193302000F005F9114A13688021C9050B4313601420FFF79EFF84
:40040000019B2B60201CFFF780FF03B030BDC046080F0340280003400800074000F800C040420F000000D43FCDF1FF0F9C0600003000104000000740F0B583B0041E182C5B
:400440000BD01C2809D0202807D0242805D0282803D02C2801D0302849D1FFF752FF0190FFF760FF002803D0FFF752FF012600E00026214A136807218B4313601F4BE3183A
:400480001B78DBB21E4A13601E4A13688B4313601D4803687F229343191C1C4BE3181B7813400B4303603220FFF722FF182C16D9114F3B680725AB431A1C231C1C3B9B0880
:4004C0002B4013433B603220FFF712FF3A68AA43231C183B9B082C1C1C4014433C60012E01D1FFF743FF0198FFF70FFF02E00020FFF722FF03B0F0BD080F0340CDF1FF0F77
:400500000C0F0340100F0340180F0340B4F1FF0F034B1B68002B01DA012000E00020704700000740014A024B1A6070476588EDAC38000340144A13685B005B081360F821FB
:400540004901124B1960124B13600022114B1A60114B1249196059609960D9601961104858619961D9611A625A629A62DA621A63802159639A63DA630A4B1A600A4B1A6097
:400580000A4B1A607047C04600000540C0000020CF1F000010000540200005401111110008080800C0000540C4000540F000054008B50E4B1B79002B05D1FFF7BBFF0122D6
:4005C0000A4B1A710BE00A4B1B68002B07DB08490A68084B1340054A126813430B60044A1368802109060B43136008BDC000002000000540FFE0FFFD38B5041CFFF781FED7
:40060000051C102C05D8104A136803218B43136016E0202C07D80C490B6803229343023A13430B600CE0302C07D807490B6803229343013A13430B6002E00020FFF77CFE12
:40064000281CFFF762FE38BD300010400E4B70B500251E1C0D4CE41AA410A54204D0AB00F35898470135F8E700F024F8084B00251E1C084CE41AA410A54204D0AB00F35869
:4006800098470135F8E770BDC0060000C0060000C0060000C806000000000000EEDBC9B9AA9B8E82766B60564D443B332C241D17100A0400F8B5C046F8BC08BC9E4670475B
:4006C00029010000BD010000F8B5C046F8BC08BC9E46704701010000E8060000880000201800000028000000000000000000E02EC05D00001800000000366E01000000008C
:4007000000000000000000000000000000000000000000000000000000000000000000000000000000000000000000000000000000000000000000000000000000000000B9
:400740000000000000000000000000000000000000000000000000000000000000000000000000000000000000000000000000000000000000000000000000000000000079
:400780000000000000000000000000000000000000000000000000000000000000000000000000000000000000000000000000000000000000000000000000000000000039
:4007C00000000000000000000000000000000000000000000000000000000000000000000000000000000000000000000000000000000000000000000000000000000000F9
:0200000490303A
:020000000F2FC0
:0200000490402A
:200000000000000000000000000000000000000000000000000000000000000000000000E0
:0200000490501A
:0C0000000002190111A90001190320D809
:0200000490600A
:0100000001FE
:00000001FF