:400000000010002011000000DD020000DD02000008B501F047FC00F063F9C04610B5144C12232360182001F0B9FB80225200114B1A60114B114A1A60FE210902104A1160D4
:40004000104A1A60E02109010F4A11600F4A1A6000220F4B1A6041320E4B1A60013A0E4B1A6002320D4B1A601123236010BDC04630001040040301400000014041FF008061
:400080000003014040FF00800803014042FF0080280003400C010140080101400001014008B572B6EE22164B1A60EE221202154B1A606022144B1A604E23144A1360144A22
:4000C00013600322134B1A602132134B1A60D932124B1A60124A134B1A600122124B1A601F32124B1A60124A124B1A600223124A1360124A1360FFF791FF00F055F908BDAE
:400100000001024000030240000402400000044018000440000104400801044000020440806DDB00080204401802044000030440800D030008030440000404401804044037
:4001400010B5064C2378002B07D1054B002B02D0044800E000BF0123237010BDA000002000000000B027000008B5084B002B03D00748084900E000BF07480368002B00D174
:4001800008BD064B002BFBD09847F9E700000000B0270000A4000020880000200000000008B50122024B1A60012001F0B3FD08BD3801002038B5FA20400001F079FA0120DE
:4001C00001F03CFD62B600F013F900F039FB01F087FB3F4801F0CAFD01F08CFD3D4D00E0251C00F0C9FB00284AD100F029F9002000F098FA041E374B9C422DD00A2803D98E
:40020000002001F059F902E0012001F055F91E2C03D9002001F05CF902E0012001F058F9322C03D9002001F05FF902E0012001F05BF9462C03D9002001F062F902E00120A0
:4002400001F05EF95A2C03D9002001F065F912E0012001F061F90EE0012001F02DF9012001F036F9012001F03FF9012001F048F9012001F051F900F071FB00F0B7FB00E0C9
:400280002C1CAC420BD00820002101F097FB002001F046FC201C01F043FC01F0FBFB0E4B1B68002B9CD000220B4B1A600820012101F084FB002001F07FFC012001F07CFC86
:4002C00043425841C0B201F033F901F0E3FB87E7A1010000FFFF000038010020FEE7C04670B50F4E0F4D13E029686B68AC68002202E001C901C30432A242FAD1E8680022FE
:4003000002E0002102C304328242FAD11035013E002EE9D102F014FAFFF74CFFFEE7C04601000000C428000008B500230AE0032B03D89A000949505800E009489900094A27
:40034000885001331F2BF2D9FFF7AAFE0022064B1A6080229205054B1A6008BD00000000DD020000000000208000002008ED00E00B4B1B68002803D080221206134301E0D0
:400380005B005B08064A1360064B1B68002802D02022134301E020229343024A13607047002002402800034008B580225201044B1A600122034B1A600120FFF7D9FF08BD00
:4003C00094020B40A8020B4008B5084B1B78002B06D100F075F900F0C1F90122034B1A7000F050F800F02AFB08BDC046BC00002038B5FFF7E9FF051E02D100F049FB051C75
:40040000002D02D100F0F2FA051C002D16D101F0DCF8041C07E001F02DFA201C01F0D9F801F0D3F8041C00F0A7FA0028F3D1201C01F0CFF800F09CF900F002FA281C38BDD2
:4004400038B50E4D002414E0630902339B000C4AD3185A681F232340DA40131CDB0706D5281C00F06BF8201C291C00F0FDF828350134002CE8D0002038BDC046BC270000C1
:400480003C01002030B500230BE01848191D890000220A509A1C920082180121494251600133002BF1D0124A01231BE05568137E0E48401800240475023B012B10D8136910
:4004C000002B01D0E87918705468002306E0181C0830400001256D4205530133002BF6D028320B1C591E002BE0D130BD3C010020BC27000010B582B0041C131C4288684695
:400500000280E289081C694601F014FF6B461B8863806B469B7823716B46DB7863716B461B79A37102B010BD0B884A889B1A0022CA8002799A4200DACB807047F0B54F46C5
:4005400080B482B0814684684668037E0193076A002515E02088F1893A1C01F021FF301C391C2A1CFFF7C6FF0C37301C211C019A00F07CF9301C211CFFF7D6FF0A34013555
:400580004B46DB8AAB42E5D802B004BC9146F0BDF0B5474680B482B08446CB8A8A684E68086980466046002803D17488B079201802E07488B079201A0025012409E0D38841
:4005C000984201D3002300E0231C1D430A3264003B1C5F1E002BF2D1002D0BD043461B78002B02D0013B4246137043461B78002B04D104E0F3794246137000E06546002DB2
:4006000022D00C1C7388B2799A1ACF8A8868391C00F0C4FE002820D0237E022B1DD1A18B01A83A1C00F008FF00220AE0530002A98C466344043B1988131C08335B0099536C
:4006400001329042F2D808E0002006E0031C08335B00012252429A5301300028F6D0281C02B004BC9046F0BD38B5041C0B7E134A1218157D023B012B04D8281CFFF788FF57
:40068000051C02E0002000F0D9FF0C4B1B191D7563091F2214401E3AA240141C002D06D1064904339B005A58A2435A5005E0034A04339B0099580C439C5038BD3C010020DF
:4006C00038B5154D281C0021642202F068F8134B2B80B0235B006B80603BFF3B2B76104C281C1A30211C3031122202F04FF8221C083401230CE0A168E38A04E013784B71B6
:4007000001320A31031C581E002BF7D128342B1C5D1E002BEFD138BD3C010020E2760000B4270000002810D183001B18DB000A4AD31820331B78023B012B09D88300181879
:40074000C0001018C368188A04E00120404201E0012040427047C046B42700000023024A9380024A136070473C01002004010020F8B501231EE0AB005B19DB000F4AD3189A
:400780005E68DB8A12E0AB005B19DB000B4AD3189F68A000001940001A6A61000B199B00D218385AF18901F0E7FD231C5C1E002BE9D12B1C5D1E002BDDD1F8BDBC270000A2
:4007C000C9B2062902D08318002119715300195AC3185980821800231372704770B50D4A85002B18DB00D3189C688B005918490064182818C0001018067E012305E0201C04
:40080000311C2A1CFFF7DCFF2B1C5D1E002BF6D170BDC046BC27000038B5051C83001B18DB00064AD318DB8A04E0281C211CFFF7D5FF231C5C1E002BF7D138BDBC27000098
:4008400010B5012303E0201CFFF7E6FF231C5C1E002BF8D110BDC0469840031C534380204000801A41435818000A7047F0B583B0071C0E1C019201233BE06300985BF31801
:400880005988884205D3431A321900251572012201E00B1A0022002A11D17D799D420ED233191B7A3A7A934205D3301C0199221CFFF786FF1CE032190133137218E03D79C6
:4008C0009D4204D27D799D4212D9002A10D16B461B79062B0CD0090235192B79194301220823FFF7B9FF020A6300F3185A802871231C5C1E002BC0D1002003B0F0BDC046E9
:4009000070B5031C084C85002A18D200A218506892688E00711849005118EB18DB00E3181A7EFFF7A3FF70BDBC27000070B5061C83001B18DB00084AD318DB8A002505E0B4
:40094000301C211CFFF7DCFF0543231C5C1E002BF6D1281C70BDC046BC27000038B50024012304E0281CFFF7E1FF04432B1C5D1E002BF7D1201C38BD024B187A7F23984314
:400980007047C0463C01002010B5104B9B68DB0310D4002810D1C3041B0E02339B000B4AD3185A681F230340DA40131CDB0705D4012404E0112402E0012400E00024002C6F
:4009C00001D100F0A5FB201C10BDC0463C01002008B5054B9B68DB0303D400F06FFA002000E0112008BDC0463C01002008B5114B9B681B061CD400220F4B1A7001204042DC
:400A000011E00D4B1878C0B2FFF7BEFF002805D10022094B5A70FFF7DBFF0AE0064A13780133DBB21370044B1B78002BE9D000E0112008BD3C0100200801002008B500F0D2
:400A400055FB002008BDC0467047C046074A084B1A6001380002074B1860054B1B68002BFBDB054A024B1A607047C04640000040000001400003014040FF0080034A136828
:400A80001B0B1B03013818431060704700020B4070B586B0FA239B006A461380304B538096235B0193802F4B197E2F4801F0C6FC6B461881002500264DE0AB005B19DB0027
:400AC0002A4AD3185C682A4A11682A4B0B401360A3895B006A46D380231C0E3305930C2323801089244901F0A9FCC0B2E072FFF7C5FF0022214B9A70281C552100F0C4FB24
:400B0000231C0A33039301330493684601F0C4FB442800D906266B461B89134A934205D8E37A012B0AD80223E37207E0144A934204D8E37A072B01D80823E37201220F4B65
:400B40009A70281C552100F09FFB0643684601F0CDFB20800135002DAFD0301C06B070BD550800003C010020C05D0000BC27000000020B40FFFFF8FDDC05000008010020C2
:400B800080BB00001E2801D9962909D80E2801D9462907D8062807D91E2907D8012006E0042004E0032002E0012000E0022000047047C046C27A13039A1A018801238B4032
:400BC000013B9A4201D2024800E002487047C046000006020000050238B5C57A00880F2804D801228240101C013814E001238340681C40081C1A0F4B197E0F4801F01EFC89
:400C00000E4B984201D8E01E05E00B4B984201D8201F00E0601F291C01F010FC084B1B78012B05D1034B1B7E5D43A02D00D8800838BDC0463C01002000366E01001BB70071
:400C40000A010020074B4343074A42430904994203D38A4203D2062002E0062000E000207047C046D7E30000281C010038B5041C00F0ABFC0A490B687F25AB43094A127879
:400C8000A418A47A23430B6007490B68AB43074C2468A218527913430B6000F09AFC38BDC0010B4084280000C4010B40A001002010B50F4B1B789A00D318DB000D4AD3185B
:400CC00058680D4B1B78012B11D1C47A0B4B1B7E6343A02B05D9FFF77FFF211CFFF752FF01E0FFF767FF013C0443054B1C6010BD08010020BC2700000A0100203C010020D9
:400D000000020B4010B50A2000F084FC444B1B68702293431C1C434A117E434801F08EFB424A904204D8202323433D4A13600BE03D4B984204D830232343394A136003E09C
:400D400040232343364A1360354B1B68384A1343384A13600124384B1C60482000F02CFC0023364A1360364A13600622354B1A60FA32354B1A6080225204344B1A60344B82
:400D80001C6083225200334B1A60033AFF3A324B1A60013A314B1A60F0235B0000E0013B2C4A1268520701D4002BF8D1002B02D108222A4B1A600024204B1C60204B1C6085
:400DC00083225200234B1A600A2000F02DFC0A2000F016FC1B4B1C601B4B1C601B4B1C6050221B4B1A604F3A1D4B1A60124B1C601C4A1368802149040B4313600222164B54
:400E00001A60F0235B0000E0013B0A4A1268520701D0002BF8D1144A104B1A6010BDC0468C0000203C01002000366E01001BB7000010008000000B4080010B40B0020B4098
:400E4000B4020B4088020B4080020B4084020B40F0010B40F0000B40F8000B4040030B408C010B4000020B400103000008B5044A044B91680B439360FFF744FF08BDC046F5
:400E80003C0100208000010070B5041C857E067E00F09BFB23681B680F22B24093431A1C0423B3401343666832680721A9408A4332602268136000F08CFB70BDF8B51C4DC6
:400EC0002B781C4C9A00D318DB00E3185F682B789A00D318DB00E3189B7D013BDBB2164E33702B789A00D318DB00E3189968327893009B185B00CB18104A1360FFF7D8FE19
:400F0000381CFFF7B3FE2B789A00D318DB0018593178CA00531A9B00C018094B1860FFF7B3FF084800F038FBFFF7A0FFF8BDC04608010020BC27000010010020A0010020BA
:400F400014010020F91D000038B5041C007EA57E21680B680F22824093430B6000F035FB61680B680722AA4093431A1C0623AB4013430B6000F02DFBA1680B68607E012263
:400F8000824093430B6038BD38B500251AE0AB005B19DB000D4A9A580D4B1A60002408E0E3001B1B9B000A4A1068C018FFF7CCFF0134AB005B19DB00044AD3189B7DA3428E
:400FC000EED80135002DE2D038BDC046BC2700001401002010B5FFF7D7FF0024274B1C60274B1C60274B1C60274B1C60274B1C60274B1C60274B1C6027490C60274B1C6002
:4010000027480368F0229343903A13430360254A1368802040010343136080225200224B1A60224A136822480343136080235B04204A13602048214A10600B60204A214B9F
:401040001A60214A214B1A60C1225204204B1A60204B187EFFF7FAFC802252021E4B1A6001221E4B1A601E4B1C6003321D4B1A60C02212031C4B1A6010BDC046F4000B40D5
:40108000B4020B40C0020B4020030B4084010B4088020B4080020B4084020B4080010B400004024094020B40A0020B40A8020B4001000010A4020B404111000088010B4074
:4010C0000000030190020B4000008301C0010B40C4010B403C01002000020B4000030B40F0010B4010030B4004020B4008B5FFF771FF08BD10B5054B1B79012B05D1034CAA
:401100002068FFF721FF0023237110BD1401002070B5041C124D83001B18DB00EB185E68FFF7E8FFE4B20F490C700B789A00D318DB005A590C4B1A600C4A7F2390689843E1
:40114000031C906009780B4393603288084B1A60301CFFF741FD0004000C064B186070BDBC27000008010020140100203C0100200C01002014030B40F0B54F464646C0B42A
:4011800083B0071C0E1C9046384D2B78384A91469A00D318DB004B445B6801932B789A00D318DB004B449968324C227893009B185B00CB18304A13602878C0B2FFF7A8FF47
:4011C000FFF776FD002333702B789A00D318DB004A4698582178CA00531A9B00C018274B1860FFF751FE402533782B4333700198FFF73CFDFFF73AFE214A00E0013A214BC2
:401200001B7A5BB2002B01DA002AF7D11A4B1B681C88BC4202D23378AB4333706D08E3D1124B1B789A00D318DB00114A9858114B1978CA00531A9B00C018104B1860FFF756
:4012400083FE381C211CFFF7FDFC43461A7833789A4201D242461370074B1B6832785A7103B00CBC90469946F0BDC04608010020BC27000010010020A0010020140100208D
:40128000333300003C010020F0B585B0041C83001B18DB00374AD3185F68002503AB1D70388801238340181C4843642101F0C6F80190E2B2304B1A70304A314B1A60802277
:4012C0001204304B1A60304800F066F93E1C0A362E4B1D700AE00198311C03AAFFF74CFF05432A4A13780133DBB21370A3001B19DB00204AD318597E244B1B78DBB29942EB
:40130000E9D803AB1B7801335B08BB7200221F4B1A701BE0A3001B19DB00164AD31898681A4B1A7893009B185B00C318184A13605A79B87A824202D3121A5A7101E00022F9
:401340005A71124A13780133DBB213700F4B1B78DBB29942DED80F4A13680F490B431360064A074B1A60C1225204064B1A60281C05B0F0BDBC270000080100200000830129
:40138000C0010B40C4010B40CD1D000010010020A0010020A8020B4001000010F0B50024244B1C70041C002600230BE0E588954206D9AE4204D21F4E3371012737702E1C04
:4013C0000A3401338B42F1D31A4B1C78002C2FD01D1C1B799A00D21852008618F6886E81002B0ED18A00511849000A394118C988298101339900CB185B00C318DB88AB81C6
:4014000016E001398B4207D10A3A8218D288094B1A81C2889A810BE00A3A8218D188054A118101339900CB185B00C318DB889381201CF0BD1C010020F0B5474680B482B02D
:4014400080460F1C019200262CE01A4B9B191C79002C07D173009B195B00164AD31800221A810AE0019B013B9C4206D173009B195B00104AD31800229A817500AB195B006B
:401480000C4AD3189A891989501A5B89C9185118784301F063F87C4300197F30000A434658530136034B1878B042CED802B004BC9046F0BD1C01002004490A68EF231A40B8
:4014C0000001DF3B18401043086070470002044004490A68FB231A408000F73B184010430860704700020440044A11687F230B40C001C0B2184310607047C0460002044013
:4015000004490A68F7231A40C000EF3B18401043086070470002044004490A68BF231A4080017F3B18401043086070470002044004490A68DF231A404001BF3B1840104337
:401540000860704700020440014B98667047C0460000002010B5041C00F037F8044A1168044B0B40A4051C43146000F032F810BD08E400E0FFFF3FFF8022D200014B1A60D5
:401580007047C04600E100E08022D200014B1A607047C04680E100E010B5041CFFF7F4FF201CFFF7D1FF0220FFF7D4FFFFF7E4FF10BDC046000000000230800803D0013050
:4015C0000238FCD1C046C0467047EFF3108072B6704780F310887047024A1168024B0B401360704700000740FFFFFFBF034B18688023DB05184000D00120704700000740EC
:401600001F2318401E3B8340181C014B1860704700E100E01F2318401E3B8340181C014B1860704780E100E01F2318401E3B8340181C014B1860704780E200E001BE7047C1
:4016400038B5041C0D1C0F2802D90020FFF7F6FFA400034B9C4664442068256038BDC0464000002070B5041C0E1E032E02D90020FFF7E4FF0F2C02D90020FFF7DFFF03258B
:401680002540ED000635FFF7A0FFA408A400074B9C46644423680322AA409343AE40351C1D432560FFF795FF70BDC04600E400E010B5041C06E0084B1868FFF77DFF074B65
:4016C0009C46644480231B029C42F4D8024B58686043FFF771FF10BD900000200080FFFF30B583B000F0D4F8002843D0FFF76DFF041C214B1B6807221A409200101C1830DC
:401700001E4B19681E4B19401E4B43438025ED01AC466344DB0B013B5B055B0D0B43A02149031943192802D8174A13430CE0174B9C4660440078023A154B9B5CC318FF2B8B
:4017400000D9FF239B050B430C4A1360114D2B680193302000F0BCFB0F4A13688021C9050B4313601420FFF7A3FF019B2B60201CFFF72FFF03B030BD080F0340080007409B
:4017800000F800C040420F000000D43FCDF1FF0F882800003000104000000740F0B583B0041E182C0BD01C2809D0202807D0242805D0282803D02C2801D0302849D1FFF764
:4017C00004FF0190FFF712FF002803D0FFF704FF012600E00026214A136807218B4313601F4BE3181B78DBB21E4A13601E4A13688B4313601D4803687F229343191C1C4B77
:40180000E3181B7813400B4303603220FFF7D4FE182C16D9114F3B680725AB431A1C231C1C3B9B082B4013433B603220FFF7C4FE3A68AA43231C183B9B082C1C1C40144318
:401840003C60012E01D1FFF74BFF0198FFF7C1FE02E00020FFF7F2FE03B0F0BD080F0340CDF1FF0F0C0F0340100F0340180F0340B4F1FF0F08B5FFF7A8FE044A13680421AB
:401880008B43136030BFFFF7A4FE08BD10ED00E0034B1B68002B01DA012000E00020704700000740014A024B1A6070476588EDAC3800034008B50720FFF7A2FE08BDC046B9
:4018C00008B500F01DF808BD08B5044A1368802109060B431360FFF7EDFF08BD0000084008B5064B1B78002B04D1FFF7E9FF0122024B1A70FFF7E8FF08BDC0462C0100200D
:4019000010B50024194B1C60194A1A4B1A601A4B1A4A13601A4A14601A4A14601A4A13601A4B1C600720FFF775FE07200321FFF799FE07201649FFF783FE164B1C60164B55
:401940001C60164B1C601422FF32154B1A60154B1C60154B1C60043AFF3A144B1A70144B1C80144B1C60144B1C6010BD000008407708008060000840070100800003084075
:4019800004030840100308400002084004020840251F0000C80E0840880E0840480F0840080F0840C80F0840880F0840A4010020B4010020C4010020AC01002038B52E4BF7
:4019C0001B78102B53D12D4B1B68DB0751D40D1C041C0720FFF71EFE6000FF231840002D03D12422244B1A7004E02522224B1A7001231843224B1860224A234B1A60022259
:401A0000224B1A60204B1A680823FF331A42F9D01D4B1B685B0714D41B4B1B689B0713D4194B1B68DB0705D51022134B1A70012001210BE01022104B1A70802040000121A5
:401A400004E00020002101E0022000210822FF320D4B1A6000290DD00D4A13685B005B0813601368802109060B43136002E0042000E0082038BDC046A40100206400084081
:401A80004002084017030000000F084068000840000008401D4B1B789B0634D51C4B1B689B0601D5182200E010221A4B1A601A4B1A681223FF331A42F9D0174B1B68DB06C9
:401AC00006D4154B1B68DB0705D50120012105E00020002102E08020400001211222FF320D4B1A60023AFF3A084B1A7000290BD00A4A13685B005B08136013688021090668
:401B00000B43136000E004207047C046A40100206400084068000840000F084000000840214B1B789B063CD5204B1860204B1A680823FF331A42F9D01D4B1B685B0705D539
:401B40006022194B1A700020002119E0184B1B689B0705D56022144B1A70022000210FE0134B1B68DB0705D510220F4B1A700120012105E010220C4B1A70802040000121CC
:401B80000822FF320A4B1A6000290BD0094A13685B005B0813601368802109060B43136000E004207047C046A401002040020840000F084000000840011C194B1B789B06A8
:401BC0002BD5184B1B685B0705D4174B1A680223FF331A42F5D0134B1B685B070DD5134B186804220F4B1A60002902D1104B1A6015E060220A4B1A7011E00E4A0A4B1A602C
:401C00000D4A13685B005B0813601368802109060B4313600120404201E0012040427047A4010020C00F0840000F08404003084068000840170300000000084004490A6848
:401C4000DF231A404001BF3B1840104308607047000304400004000C014B18607047C046080106400004000C014B18607047C0461401064038B5041C0D1CFFF7A6FCAC4036
:401C8000024B1C60FFF7A5FC38BDC0460800064008B5FFF79AFC064A116801230B431360FFF797FC01201821FFF7E4FF08BDC04600000640014B18607047C04638010640B7
:401CC00008B5084A084B1A600C22084B1A600120FFF7F0FF0648FFF7C5FF0020FFF7BAFF08BDC0460007000200010640240106409F24000008B5064B1B78002B04D1FFF750
:401D0000DFFF0122024B1A70FFF7C2FF08BDC04634010020014B18607047C04630010640014BD8667047C0460000002010B5041CFFF74BFC044A13689B009B08A4071C4362
:401D40001460FFF746FC10BD08E400E080221201014B1A607047C04600E100E080221201014B1A607047C04680E100E010B5041CFFF7F4FF201CFFF7D3FF0320FFF7D6FFEC
:401D8000FFF7E4FF10BDC0460C4B1A6801239340013B0B4A12681204120C9A4206D2094B1968094B1B785B00CA5205E0054A1168054A127852008B527047C0460C010020E2
:401DC000D0000B40A00100208428000008B583225200064B1A60FFF7D7FF054BDA880132DA80044A99680A409A6008BDF0000B403C0100207FFFFEFFF8B52D4E33782D4F17
:401E00009A00D318DB00DC592B4D2978CA00531A9B00E41883225200284B1A60FFF7B4FF201CFFF791F8327893009B18DB00FB18586833782B782B78002B25D01E490B7845
:401E4000013BDBB20B701A4D2B781A4C9A00D318DB00E3189E680A7893009B185B00F318174A13602B789A00D318DB001C590978CA00531A9B00E418FEF7F8FE201CFFF767
:401E800003F8FEF73FFF12E00E4A0F4B91680B4093600E4A1278012A02D1FEF7D5FD06E0084A80218B439360D3880133D380F8BD08010020BC27000010010020F0000B40C9
:401EC000A00100203C010020FFFFFEFF0901002038B5041CFFF779FB051C102C05D8104A136803218B43136016E0202C07D80C490B6803229343023A13430B600CE0302C8B
:401F000007D807490B6803229343013A13430B6002E00020FFF792FB281CFFF75AFB38BD3000104010B5B94B1B68002B00D09847B74B1B68DB0702D50022B64B1A60B64B7D
:401F40001B789B0628D5B54B1B68DB0507D5B44A1188C0239B000B431380012300E00023AE4A1268D20706D5AD4A118890239B000B4313800123002B0FD0A74A1278D2076D
:401F800001D5012200E00222A549088802430A800021A14A117000E000239F4A1278920600D417E19D4A1268D20611D510229D4B1A60994B1B78DB0701D5012300E0022365
:401FC000974A11880B4313801022934B1A701BE1914A1278120720D5904A126892070AD50222904B1A608E4A118888239B000B431380012311E0884A1278D20703D5252138
:40200000854A117009E02421834A1170864A1268002A02D01439854A11607F4A1278520700D4AEE07C4A1278D20749D5804A1268120727D57F4A12687F4909681F240C4048
:402040007E4909686418141B082C09D8002C16D17B4A11687B4B0B401360012308340EE008240CE0754A116877480068411877480068C0B20870116801311160013C002CDF
:40208000F0D119E06A4A1268520715D56B4A11686D48006841186D480068C0B208701168013111601168634A1268914203D20421674A116000E001236649674A116060E08A
:4020C000564A1268920726D50222564B1A60634A13681F211940136880221202134000D00123CB185E4A1168CB1A136012685D4B1A604B4A118884239B000B4313805A4BCC
:402100001A68802149020A431A601968574A0A401A60012335E0564A1268D2061ED427E04F4A1168404A126891421DD23E4A1268013A4B4909688A4204D140224D490A6043
:402140003A490A60464A11684B48006841180978C9B24A4801601168013111603F4A12681F210A40082ADBD11021424A116008E03F4A1268520604D5394B1A68394B1A6051
:402180000123002B40D02E4A11682E4B0B40136000233B4A1360254A13603A4B1B789B070ED51D4B1B78DB0701D5092300E00A231B4A11880B4313806022174B1A7023E0C2
:4021C000314B1B689B0601D5182200E01022204B1A6019E0104B1B78DB0615D42B4A13685B005B08136010210B4B1970144B18682749014019601868264901401960136829
:40220000802109060B43136010BDC046300100208C0E0840880E0840A40100200C0F0840B4010020000F0840B0010020880F0840CC0F0840C001002008030840C401002009
:4022400060000840FFFEFFFFB80100204003084068000840ED0F0000C00F084008020840A8010020AC01002004020840FFFFFEFF8C0F0840800F0840C80100204002084036
:40228000C80F0840BC0100206400084000000840FF5FFFFFFFFCFFFF38B5041CC36861881878A3885843800000F0C8F8072100F0C5F8051C238820890B495843684300F05E
:4022C000BDF8013023691022082809D80822042806D80422022803D801D1187001E001221A70281C38BDC04600E1F50538B5041C428813049003181AE368801A1978A38874
:40230000594300F09BF82369051C1978208900F095F8E188684300F091F8021C1020E1239B009A4203D9431ED8B25208F7E763691A8038BD70B5061C0C1C101C0A211D1C6B
:4023400000F07CF80B4A80B2002D01D1158001E02388138033889B00984200DC98B21388834200D220804308DBB2C008A370E370207170BD3601002038B5051C081C0A211F
:40238000141C00F05BF880B2830823800F23A3720023C008A580E58025816080E37238BD38B5031C141C90889380927A181A5200D2B2002801DBA27202E00132A272404280
:4023C0000F22A57A15406288A572904203D2012A03D9013A00E0013262800F2D05D0002D03D06588AA00904203D9E380238100230CE0E2889A4201D9E38003E022899A4200
:4024000000D22381E37A092B02D80133E37213E02389E2889B1A9BB29D4209D9081C0A2100F00CF880B28008854203D9013D00E0013565806388238038BD0000002243089D
:402440008B4274D303098B425FD3030A8B4244D3030B8B4228D3030C8B420DD3FF22090212BA030C8B4202D31212090265D0030B8B4219D300E0090AC30B8B4201D3CB03B6
:40248000C01A5241830B8B4201D38B03C01A5241430B8B4201D34B03C01A5241030B8B4201D30B03C01A5241C30A8B4201D3CB02C01A5241830A8B4201D38B02C01A5241E1
:4024C000430A8B4201D34B02C01A5241030A8B4201D30B02C01A5241CDD2C3098B4201D3CB01C01A524183098B4201D38B01C01A524143098B4201D34B01C01A52410309EF
:402500008B4201D30B01C01A5241C3088B4201D3CB00C01A524183088B4201D38B00C01A524143088B4201D34B00C01A5241411A00D20146524110467047FFE701B5002045
:4025400000F0FCF802BDC0460029F7D003B5FFF775FF0EBC4243891A1847C04603460B437FD4002243088B4274D303098B425FD3030A8B4244D3030B8B4228D3030C8B4230
:402580000DD3FF22090212BA030C8B4202D31212090265D0030B8B4219D300E0090AC30B8B4201D3CB03C01A5241830B8B4201D38B03C01A5241430B8B4201D34B03C01A89
:4025C0005241030B8B4201D30B03C01A5241C30A8B4201D3CB02C01A5241830A8B4201D38B02C01A5241430A8B4201D34B02C01A5241030A8B4201D30B02C01A5241CDD2DF
:40260000C3098B4201D3CB01C01A524183098B4201D38B01C01A524143098B4201D34B01C01A524103098B4201D30B01C01A5241C3088B4201D3CB00C01A524183088B4206
:4026400001D38B00C01A524143088B4201D34B00C01A5241411A00D201465241104670475DE0CA0F00D04942031000D34042534000229C4603098B422DD3030A8B4212D3CE
:40268000FC22890112BA030A8B420CD3890192118B4208D3890192118B4204D389013AD0921100E08909C3098B4201D3CB01C01A524183098B4201D38B01C01A5241430986
:4026C0008B4201D34B01C01A524103098B4201D30B01C01A5241C3088B4201D3CB00C01A524183088B4201D38B00C01A5241D9D243088B4201D34B00C01A5241411A00D216
:402700000146634652415B10104601D34042002B00D54942704763465B1000D3404201B5002000F00BF802BD0029F8D003B5FFF715FF0EBC4243891A1847C0467047C04605
:402740000E4B70B500251E1C0D4CE41AA410A54204D0AB00F35898470135F8E700F0A0F8084B00251E1C084CE41AA410A54204D0AB00F35898470135F8E770BDAC280000E6
:40278000AC280000AC280000B4280000002310B5934203D0CC5CC4540133F9E710BD031C8218934202D019700133FAE770470000000000002020202020000000F827000070
:4027C00056010020680100200000000000010020010005000205640000190000C4000020C00000200C000100010101031E642008F4010000FFFF0000000202400802044028
:4028000000020440040204400F0000000100000000000000000002400800044000000440040004400000000F40000000180612000000024008000440000004400400044045
:4028400000F00000080000000C03090000000240080004400000044004000440000F0000040000000802060000000240080004400000044004000440F000000002000000FF
:402880000401030000000000EEDBC9B9AA9B8E82766B60564D443B332C241D17100A0400F8B5C046F8BC08BC9E4670476901000029030000F8B5C046F8BC08BC9E46704716
:4028C00041010000D82800008800002018000000300100000000000000000000020000040000E02EC05D00001800000000366E0100000000000000000000000000000000B7
:402900000000000000000000000000000000000000000000000000000000000000000000000000000000000000000000000000000000000000000000000000000000000097
:402940000000000000000000000000000000000000000000000000000000000000000000000000000000000000000000000000000000000000000000000000000000000057
:402980000000000000000000000000000000000000000000000000000000000000000000000000000000000000000000000000000000000000000000000000000000000017
:4029C00000000000000000000000000000000000000000000000000000000000000000000000000000000000000000000000000000000000000000000000000000000000D7
:0200000490303A
:02000000CDE44D
:0200000490402A
:200000000000000000000000000000000000000000000000000000000000000000000000E0
:0200000490501A
:0C0000000002190111A90001190DDF8D8B
:0200000490600A
:0100000001FE
:00000001FF